{
  "contractName": "LifToken",
  "abi": [
    {
      "constant": true,
      "inputs": [],
      "name": "mintingFinished",
      "outputs": [
        {
          "name": "",
          "type": "bool"
        }
      ],
      "payable": false,
      "stateMutability": "view",
      "type": "function"
    },
    {
      "constant": false,
      "inputs": [
        {
          "name": "_spender",
          "type": "address"
        },
        {
          "name": "_value",
          "type": "uint256"
        }
      ],
      "name": "approve",
      "outputs": [
        {
          "name": "",
          "type": "bool"
        }
      ],
      "payable": false,
      "stateMutability": "nonpayable",
      "type": "function"
    },
    {
      "constant": true,
      "inputs": [],
      "name": "totalSupply",
      "outputs": [
        {
          "name": "",
          "type": "uint256"
        }
      ],
      "payable": false,
      "stateMutability": "view",
      "type": "function"
    },
    {
      "constant": false,
      "inputs": [
        {
          "name": "_from",
          "type": "address"
        },
        {
          "name": "_to",
          "type": "address"
        },
        {
          "name": "_value",
          "type": "uint256"
        }
      ],
      "name": "transferFrom",
      "outputs": [
        {
          "name": "",
          "type": "bool"
        }
      ],
      "payable": false,
      "stateMutability": "nonpayable",
      "type": "function"
    },
    {
      "constant": true,
      "inputs": [],
      "name": "DECIMALS",
      "outputs": [
        {
          "name": "",
          "type": "uint256"
        }
      ],
      "payable": false,
      "stateMutability": "view",
      "type": "function"
    },
    {
      "constant": false,
      "inputs": [],
      "name": "unpause",
      "outputs": [],
      "payable": false,
      "stateMutability": "nonpayable",
      "type": "function"
    },
    {
      "constant": false,
      "inputs": [
        {
          "name": "_to",
          "type": "address"
        },
        {
          "name": "_value",
          "type": "uint256"
        },
        {
          "name": "_data",
          "type": "bytes"
        }
      ],
      "name": "transferAndCall",
      "outputs": [
        {
          "name": "",
          "type": "bool"
        }
      ],
      "payable": true,
      "stateMutability": "payable",
      "type": "function"
    },
    {
      "constant": false,
      "inputs": [
        {
          "name": "_to",
          "type": "address"
        },
        {
          "name": "_amount",
          "type": "uint256"
        }
      ],
      "name": "mint",
      "outputs": [
        {
          "name": "",
          "type": "bool"
        }
      ],
      "payable": false,
      "stateMutability": "nonpayable",
      "type": "function"
    },
    {
      "constant": true,
      "inputs": [],
      "name": "paused",
      "outputs": [
        {
          "name": "",
          "type": "bool"
        }
      ],
      "payable": false,
      "stateMutability": "view",
      "type": "function"
    },
    {
      "constant": false,
      "inputs": [
        {
          "name": "_spender",
          "type": "address"
        },
        {
          "name": "_subtractedValue",
          "type": "uint256"
        }
      ],
      "name": "decreaseApproval",
      "outputs": [
        {
          "name": "success",
          "type": "bool"
        }
      ],
      "payable": false,
      "stateMutability": "nonpayable",
      "type": "function"
    },
    {
      "constant": true,
      "inputs": [
        {
          "name": "_owner",
          "type": "address"
        }
      ],
      "name": "balanceOf",
      "outputs": [
        {
          "name": "",
          "type": "uint256"
        }
      ],
      "payable": false,
      "stateMutability": "view",
      "type": "function"
    },
    {
      "constant": false,
      "inputs": [],
      "name": "renounceOwnership",
      "outputs": [],
      "payable": false,
      "stateMutability": "nonpayable",
      "type": "function"
    },
    {
      "constant": false,
      "inputs": [],
      "name": "finishMinting",
      "outputs": [
        {
          "name": "",
          "type": "bool"
        }
      ],
      "payable": false,
      "stateMutability": "nonpayable",
      "type": "function"
    },
    {
      "constant": false,
      "inputs": [],
      "name": "pause",
      "outputs": [],
      "payable": false,
      "stateMutability": "nonpayable",
      "type": "function"
    },
    {
      "constant": true,
      "inputs": [],
      "name": "owner",
      "outputs": [
        {
          "name": "",
          "type": "address"
        }
      ],
      "payable": false,
      "stateMutability": "view",
      "type": "function"
    },
    {
      "constant": false,
      "inputs": [
        {
          "name": "_spender",
          "type": "address"
        },
        {
          "name": "_addedValue",
          "type": "uint256"
        },
        {
          "name": "_data",
          "type": "bytes"
        }
      ],
      "name": "increaseApprovalAndCall",
      "outputs": [
        {
          "name": "",
          "type": "bool"
        }
      ],
      "payable": true,
      "stateMutability": "payable",
      "type": "function"
    },
    {
      "constant": true,
      "inputs": [],
      "name": "NAME",
      "outputs": [
        {
          "name": "",
          "type": "string"
        }
      ],
      "payable": false,
      "stateMutability": "view",
      "type": "function"
    },
    {
      "constant": false,
      "inputs": [
        {
          "name": "_to",
          "type": "address"
        },
        {
          "name": "_value",
          "type": "uint256"
        }
      ],
      "name": "transfer",
      "outputs": [
        {
          "name": "",
          "type": "bool"
        }
      ],
      "payable": false,
      "stateMutability": "nonpayable",
      "type": "function"
    },
    {
      "constant": false,
      "inputs": [
        {
          "name": "_from",
          "type": "address"
        },
        {
          "name": "_to",
          "type": "address"
        },
        {
          "name": "_value",
          "type": "uint256"
        },
        {
          "name": "_data",
          "type": "bytes"
        }
      ],
      "name": "transferFromAndCall",
      "outputs": [
        {
          "name": "",
          "type": "bool"
        }
      ],
      "payable": true,
      "stateMutability": "payable",
      "type": "function"
    },
    {
      "constant": false,
      "inputs": [
        {
          "name": "_spender",
          "type": "address"
        },
        {
          "name": "_value",
          "type": "uint256"
        },
        {
          "name": "_data",
          "type": "bytes"
        }
      ],
      "name": "approveAndCall",
      "outputs": [
        {
          "name": "",
          "type": "bool"
        }
      ],
      "payable": true,
      "stateMutability": "payable",
      "type": "function"
    },
    {
      "constant": false,
      "inputs": [
        {
          "name": "_spender",
          "type": "address"
        },
        {
          "name": "_subtractedValue",
          "type": "uint256"
        },
        {
          "name": "_data",
          "type": "bytes"
        }
      ],
      "name": "decreaseApprovalAndCall",
      "outputs": [
        {
          "name": "",
          "type": "bool"
        }
      ],
      "payable": true,
      "stateMutability": "payable",
      "type": "function"
    },
    {
      "constant": false,
      "inputs": [
        {
          "name": "_spender",
          "type": "address"
        },
        {
          "name": "_addedValue",
          "type": "uint256"
        }
      ],
      "name": "increaseApproval",
      "outputs": [
        {
          "name": "success",
          "type": "bool"
        }
      ],
      "payable": false,
      "stateMutability": "nonpayable",
      "type": "function"
    },
    {
      "constant": true,
      "inputs": [
        {
          "name": "_owner",
          "type": "address"
        },
        {
          "name": "_spender",
          "type": "address"
        }
      ],
      "name": "allowance",
      "outputs": [
        {
          "name": "",
          "type": "uint256"
        }
      ],
      "payable": false,
      "stateMutability": "view",
      "type": "function"
    },
    {
      "constant": false,
      "inputs": [
        {
          "name": "_newOwner",
          "type": "address"
        }
      ],
      "name": "transferOwnership",
      "outputs": [],
      "payable": false,
      "stateMutability": "nonpayable",
      "type": "function"
    },
    {
      "constant": true,
      "inputs": [],
      "name": "SYMBOL",
      "outputs": [
        {
          "name": "",
          "type": "string"
        }
      ],
      "payable": false,
      "stateMutability": "view",
      "type": "function"
    },
    {
      "anonymous": false,
      "inputs": [],
      "name": "Pause",
      "type": "event"
    },
    {
      "anonymous": false,
      "inputs": [],
      "name": "Unpause",
      "type": "event"
    },
    {
      "anonymous": false,
      "inputs": [
        {
          "indexed": true,
          "name": "to",
          "type": "address"
        },
        {
          "indexed": false,
          "name": "amount",
          "type": "uint256"
        }
      ],
      "name": "Mint",
      "type": "event"
    },
    {
      "anonymous": false,
      "inputs": [],
      "name": "MintFinished",
      "type": "event"
    },
    {
      "anonymous": false,
      "inputs": [
        {
          "indexed": true,
          "name": "previousOwner",
          "type": "address"
        }
      ],
      "name": "OwnershipRenounced",
      "type": "event"
    },
    {
      "anonymous": false,
      "inputs": [
        {
          "indexed": true,
          "name": "previousOwner",
          "type": "address"
        },
        {
          "indexed": true,
          "name": "newOwner",
          "type": "address"
        }
      ],
      "name": "OwnershipTransferred",
      "type": "event"
    },
    {
      "anonymous": false,
      "inputs": [
        {
          "indexed": true,
          "name": "owner",
          "type": "address"
        },
        {
          "indexed": true,
          "name": "spender",
          "type": "address"
        },
        {
          "indexed": false,
          "name": "value",
          "type": "uint256"
        }
      ],
      "name": "Approval",
      "type": "event"
    },
    {
      "anonymous": false,
      "inputs": [
        {
          "indexed": true,
          "name": "from",
          "type": "address"
        },
        {
          "indexed": true,
          "name": "to",
          "type": "address"
        },
        {
          "indexed": false,
          "name": "value",
          "type": "uint256"
        }
      ],
      "name": "Transfer",
      "type": "event"
    },
    {
      "constant": false,
      "inputs": [
        {
          "name": "_value",
          "type": "uint256"
        }
      ],
      "name": "burn",
      "outputs": [],
      "payable": false,
      "stateMutability": "nonpayable",
      "type": "function"
    },
    {
      "constant": false,
      "inputs": [
        {
          "name": "burner",
          "type": "address"
        },
        {
          "name": "_value",
          "type": "uint256"
        }
      ],
      "name": "burn",
      "outputs": [],
      "payable": false,
      "stateMutability": "nonpayable",
      "type": "function"
    }
  ],
  "bytecode": "0x608060405260038054600160b060020a03191633179055611368806100256000396000f30060806040526004361061015e5763ffffffff7c010000000000000000000000000000000000000000000000000000000060003504166305d2035b8114610163578063095ea7b31461018c57806318160ddd146101b057806323b872dd146101d75780632e0f2625146102015780633f4ba83a146102165780634000aea01461022d57806340c10f191461028957806342966c68146102ad5780635c975abb146102c557806366188463146102da57806370a08231146102fe578063715018a61461031f5780637d64bcb4146103345780638456cb59146103495780638da5cb5b1461035e57806390db623f1461038f5780639dc29fac146103eb578063a3f4df7e1461040f578063a9059cbb14610499578063c1d34b89146104bd578063cae9ca511461051f578063cb3993be1461057b578063d73dd623146105d7578063dd62ed3e146105fb578063f2fde38b14610622578063f76f8d7814610643575b600080fd5b34801561016f57600080fd5b50610178610658565b604080519115158252519081900360200190f35b34801561019857600080fd5b50610178600160a060020a0360043516602435610668565b3480156101bc57600080fd5b506101c5610693565b60408051918252519081900360200190f35b3480156101e357600080fd5b50610178600160a060020a0360043581169060243516604435610699565b34801561020d57600080fd5b506101c56106c6565b34801561022257600080fd5b5061022b6106cb565b005b604080516020600460443581810135601f8101849004840285018401909552848452610178948235600160a060020a03169460248035953695946064949201919081908401838280828437509497506107449650505050505050565b34801561029557600080fd5b50610178600160a060020a03600435166024356107f4565b3480156102b957600080fd5b5061022b6004356108ec565b3480156102d157600080fd5b5061017861098e565b3480156102e657600080fd5b50610178600160a060020a036004351660243561099e565b34801561030a57600080fd5b506101c5600160a060020a03600435166109c2565b34801561032b57600080fd5b5061022b6109dd565b34801561034057600080fd5b50610178610a4b565b34801561035557600080fd5b5061022b610acf565b34801561036a57600080fd5b50610373610b4d565b60408051600160a060020a039092168252519081900360200190f35b604080516020600460443581810135601f8101849004840285018401909552848452610178948235600160a060020a0316946024803595369594606494920191908190840183828082843750949750610b5c9650505050505050565b3480156103f757600080fd5b5061022b600160a060020a0360043516602435610b7e565b34801561041b57600080fd5b50610424610c5c565b6040805160208082528351818301528351919283929083019185019080838360005b8381101561045e578181015183820152602001610446565b50505050905090810190601f16801561048b5780820380516001836020036101000a031916815260200191505b509250505060405180910390f35b3480156104a557600080fd5b50610178600160a060020a0360043516602435610c93565b604080516020601f60643560048181013592830184900484028501840190955281845261017894600160a060020a038135811695602480359092169560443595369560849401918190840183828082843750949750610cb79650505050505050565b604080516020600460443581810135601f8101849004840285018401909552848452610178948235600160a060020a0316946024803595369594606494920191908190840183828082843750949750610d699650505050505050565b604080516020600460443581810135601f8101849004840285018401909552848452610178948235600160a060020a0316946024803595369594606494920191908190840183828082843750949750610d8b9650505050505050565b3480156105e357600080fd5b50610178600160a060020a0360043516602435610dad565b34801561060757600080fd5b506101c5600160a060020a0360043581169060243516610dd1565b34801561062e57600080fd5b5061022b600160a060020a0360043516610dfc565b34801561064f57600080fd5b50610424610e1f565b60035460a060020a900460ff1681565b60035460009060a860020a900460ff161561068257600080fd5b61068c8383610e56565b9392505050565b60015490565b60035460009060a860020a900460ff16156106b357600080fd5b6106be848484610ebc565b949350505050565b601281565b600354600160a060020a031633146106e257600080fd5b60035460a860020a900460ff1615156106fa57600080fd5b6003805475ff000000000000000000000000000000000000000000191690556040517f7805862f689e2f13df9f062ff482ad3ad112aca9e0847911ed832e158c525b3390600090a1565b6000600160a060020a03841630141561075c57600080fd5b6107668484611021565b5083600160a060020a0316348360405180828051906020019080838360005b8381101561079d578181015183820152602001610785565b50505050905090810190601f1680156107ca5780820380516001836020036101000a031916815260200191505b5091505060006040518083038185875af19250505015156107ea57600080fd5b5060019392505050565b600354600090600160a060020a0316331461080e57600080fd5b60035460a060020a900460ff161561082557600080fd5b600154610838908363ffffffff6110f016565b600155600160a060020a038316600090815260208190526040902054610864908363ffffffff6110f016565b600160a060020a03841660008181526020818152604091829020939093558051858152905191927f0f6798a560793a54c3bcfe86a93cde1e73087d944c0ea20544137d412139688592918290030190a2604080518381529051600160a060020a0385169160009160008051602061131d8339815191529181900360200190a350600192915050565b60035460a860020a900460ff161561090357600080fd5b3360009081526020819052604090205481111561091f57600080fd5b3360009081526020819052604090205461093f908263ffffffff61110316565b33600090815260208190526040902055600154610962908263ffffffff61110316565b600155604080518281529051600091339160008051602061131d8339815191529181900360200190a350565b60035460a860020a900460ff1681565b60035460009060a860020a900460ff16156109b857600080fd5b61068c8383611115565b600160a060020a031660009081526020819052604090205490565b600354600160a060020a031633146109f457600080fd5b600354604051600160a060020a03909116907ff8df31144d9c2f0f6b59d69b8b98abd5459d07f2742c4df920b25aae33c6482090600090a26003805473ffffffffffffffffffffffffffffffffffffffff19169055565b600354600090600160a060020a03163314610a6557600080fd5b60035460a060020a900460ff1615610a7c57600080fd5b6003805474ff0000000000000000000000000000000000000000191660a060020a1790556040517fae5184fba832cb2b1f702aca6117b8d265eaf03ad33eb133f19dde0f5920fa0890600090a150600190565b600354600160a060020a03163314610ae657600080fd5b60035460a860020a900460ff1615610afd57600080fd5b6003805475ff000000000000000000000000000000000000000000191660a860020a1790556040517f6985a02210a168e66602d3235cb6db0e70f92b3ba4d376a33c0f3d9434bff62590600090a1565b600354600160a060020a031681565b6000600160a060020a038416301415610b7457600080fd5b6107668484611205565b600354600160a060020a03163314610b9557600080fd5b60035460a060020a900460ff1615610bac57600080fd5b600160a060020a038216600090815260208190526040902054811115610bd157600080fd5b600160a060020a038216600090815260208190526040902054610bfa908263ffffffff61110316565b600160a060020a038316600090815260208190526040902055600154610c26908263ffffffff61110316565b600155604080518281529051600091600160a060020a0385169160008051602061131d8339815191529181900360200190a35050565b60408051808201909152600481527f4cc3ad6600000000000000000000000000000000000000000000000000000000602082015281565b60035460009060a860020a900460ff1615610cad57600080fd5b61068c8383611021565b6000600160a060020a038416301415610ccf57600080fd5b610cda858585610ebc565b5083600160a060020a0316348360405180828051906020019080838360005b83811015610d11578181015183820152602001610cf9565b50505050905090810190601f168015610d3e5780820380516001836020036101000a031916815260200191505b5091505060006040518083038185875af1925050501515610d5e57600080fd5b506001949350505050565b6000600160a060020a038416301415610d8157600080fd5b6107668484610e56565b6000600160a060020a038416301415610da357600080fd5b6107668484611115565b60035460009060a860020a900460ff1615610dc757600080fd5b61068c8383611205565b600160a060020a03918216600090815260026020908152604080832093909416825291909152205490565b600354600160a060020a03163314610e1357600080fd5b610e1c8161129e565b50565b60408051808201909152600381527f4c49460000000000000000000000000000000000000000000000000000000000602082015281565b336000818152600260209081526040808320600160a060020a038716808552908352818420869055815186815291519394909390927f8c5be1e5ebec7d5bd14f71427d1e84f3dd0314c0f7b2291e5b200ac8c7c3b925928290030190a350600192915050565b6000600160a060020a0383161515610ed357600080fd5b600160a060020a038416600090815260208190526040902054821115610ef857600080fd5b600160a060020a0384166000908152600260209081526040808320338452909152902054821115610f2857600080fd5b600160a060020a038416600090815260208190526040902054610f51908363ffffffff61110316565b600160a060020a038086166000908152602081905260408082209390935590851681522054610f86908363ffffffff6110f016565b600160a060020a03808516600090815260208181526040808320949094559187168152600282528281203382529091522054610fc8908363ffffffff61110316565b600160a060020a038086166000818152600260209081526040808320338452825291829020949094558051868152905192871693919260008051602061131d833981519152929181900390910190a35060019392505050565b6000600160a060020a038316151561103857600080fd5b3360009081526020819052604090205482111561105457600080fd5b33600090815260208190526040902054611074908363ffffffff61110316565b3360009081526020819052604080822092909255600160a060020a038516815220546110a6908363ffffffff6110f016565b600160a060020a0384166000818152602081815260409182902093909355805185815290519192339260008051602061131d8339815191529281900390910190a350600192915050565b818101828110156110fd57fe5b92915050565b60008282111561110f57fe5b50900390565b336000908152600260209081526040808320600160a060020a03861684529091528120548083111561116a57336000908152600260209081526040808320600160a060020a038816845290915281205561119f565b61117a818463ffffffff61110316565b336000908152600260209081526040808320600160a060020a03891684529091529020555b336000818152600260209081526040808320600160a060020a0389168085529083529281902054815190815290519293927f8c5be1e5ebec7d5bd14f71427d1e84f3dd0314c0f7b2291e5b200ac8c7c3b925929181900390910190a35060019392505050565b336000908152600260209081526040808320600160a060020a0386168452909152812054611239908363ffffffff6110f016565b336000818152600260209081526040808320600160a060020a0389168085529083529281902085905580519485525191937f8c5be1e5ebec7d5bd14f71427d1e84f3dd0314c0f7b2291e5b200ac8c7c3b925929081900390910190a350600192915050565b600160a060020a03811615156112b357600080fd5b600354604051600160a060020a038084169216907f8be0079c531659141344cd1fd0a4f28419497f9722a3daafe3b4186f6b6457e090600090a36003805473ffffffffffffffffffffffffffffffffffffffff1916600160a060020a03929092169190911790555600ddf252ad1be2c89b69c2b068fc378daa952ba7f163c4a11628f55a4df523b3efa165627a7a723058209fc960b2b122c8953f986d9e60000ea4c72ac7d42d4c0bc849da92decf13fa6a0029",
  "source": "pragma solidity ^0.4.18;\n\nimport \"zeppelin-solidity/contracts/token/ERC827/ERC827Token.sol\";\nimport \"zeppelin-solidity/contracts/token/ERC20/StandardToken.sol\";\nimport \"zeppelin-solidity/contracts/token/ERC20/MintableToken.sol\";\nimport \"zeppelin-solidity/contracts/token/ERC20/PausableToken.sol\";\n\n/**\n   @title Líf, the Winding Tree token\n\n   Implementation of Líf, the ERC827 token for Winding Tree, an extension of the\n   ERC20 token with extra methods to transfer value and data to execute a call\n   on transfer.\n   Uses OpenZeppelin StandardToken, ERC827Token, MintableToken and PausableToken.\n */\ncontract LifToken is StandardToken, ERC827Token, MintableToken, PausableToken {\n  // Token Name\n  string public constant NAME = \"Líf\";\n\n  // Token Symbol\n  string public constant SYMBOL = \"LIF\";\n\n  // Token decimals\n  uint public constant DECIMALS = 18;\n\n  /**\n   * @dev Burns a specific amount of tokens.\n   *\n   * @param _value The amount of tokens to be burned.\n   */\n  function burn(uint256 _value) public whenNotPaused {\n\n    require(_value <= balances[msg.sender]);\n\n    balances[msg.sender] = balances[msg.sender].sub(_value);\n    totalSupply_ = totalSupply_.sub(_value);\n\n    // a Transfer event to 0x0 can be useful for observers to keep track of\n    // all the Lif by just looking at those events\n    Transfer(msg.sender, address(0), _value);\n  }\n\n  /**\n   * @dev Burns a specific amount of tokens of an address\n   * This function can be called only by the owner in the minting process\n   *\n   * @param _value The amount of tokens to be burned.\n   */\n  function burn(address burner, uint256 _value) public onlyOwner {\n\n    require(!mintingFinished);\n\n    require(_value <= balances[burner]);\n\n    balances[burner] = balances[burner].sub(_value);\n    totalSupply_ = totalSupply_.sub(_value);\n\n    // a Transfer event to 0x0 can be useful for observers to keep track of\n    // all the Lif by just looking at those events\n    Transfer(burner, address(0), _value);\n  }\n}\n",
  "sourcePath": "@windingtree/lif-token/contracts/LifToken.sol",
  "compiler": {
    "name": "solc",
    "version": "0.4.24+commit.e67f0147.Emscripten.clang"
  },
  "schemaVersion": "2.0.1",
  "updatedAt": "2018-07-24T12:01:42.251Z"
}