{
  "contractName": "BookingPoC",
  "abi": [
    {
      "constant": true,
      "inputs": [],
      "name": "totalNights",
      "outputs": [
        {
          "name": "",
          "type": "uint256"
        }
      ],
      "payable": false,
      "stateMutability": "view",
      "type": "function"
    },
    {
      "constant": true,
      "inputs": [],
      "name": "lifToken",
      "outputs": [
        {
          "name": "",
          "type": "address"
        }
      ],
      "payable": false,
      "stateMutability": "view",
      "type": "function"
    },
    {
      "constant": true,
      "inputs": [],
      "name": "offerSigner",
      "outputs": [
        {
          "name": "",
          "type": "address"
        }
      ],
      "payable": false,
      "stateMutability": "view",
      "type": "function"
    },
    {
      "constant": false,
      "inputs": [],
      "name": "renounceOwnership",
      "outputs": [],
      "payable": false,
      "stateMutability": "nonpayable",
      "type": "function"
    },
    {
      "constant": true,
      "inputs": [],
      "name": "owner",
      "outputs": [
        {
          "name": "",
          "type": "address"
        }
      ],
      "payable": false,
      "stateMutability": "view",
      "type": "function"
    },
    {
      "constant": true,
      "inputs": [
        {
          "name": "",
          "type": "uint256"
        }
      ],
      "name": "refunds",
      "outputs": [
        {
          "name": "beforeTime",
          "type": "uint256"
        },
        {
          "name": "dividedBy",
          "type": "uint8"
        }
      ],
      "payable": false,
      "stateMutability": "view",
      "type": "function"
    },
    {
      "constant": true,
      "inputs": [],
      "name": "endBookings",
      "outputs": [
        {
          "name": "",
          "type": "uint256"
        }
      ],
      "payable": false,
      "stateMutability": "view",
      "type": "function"
    },
    {
      "constant": false,
      "inputs": [
        {
          "name": "_newOwner",
          "type": "address"
        }
      ],
      "name": "transferOwnership",
      "outputs": [],
      "payable": false,
      "stateMutability": "nonpayable",
      "type": "function"
    },
    {
      "inputs": [
        {
          "name": "_offerSigner",
          "type": "address"
        },
        {
          "name": "_lifToken",
          "type": "address"
        },
        {
          "name": "_totalNights",
          "type": "uint256"
        },
        {
          "name": "_endBookings",
          "type": "uint256"
        }
      ],
      "payable": false,
      "stateMutability": "nonpayable",
      "type": "constructor"
    },
    {
      "anonymous": false,
      "inputs": [
        {
          "indexed": false,
          "name": "roomType",
          "type": "string"
        },
        {
          "indexed": false,
          "name": "nights",
          "type": "uint256[]"
        },
        {
          "indexed": false,
          "name": "room",
          "type": "uint256"
        },
        {
          "indexed": false,
          "name": "newGuest",
          "type": "address"
        },
        {
          "indexed": false,
          "name": "bookingHash",
          "type": "bytes32"
        }
      ],
      "name": "BookingCanceled",
      "type": "event"
    },
    {
      "anonymous": false,
      "inputs": [
        {
          "indexed": false,
          "name": "roomType",
          "type": "string"
        },
        {
          "indexed": false,
          "name": "nights",
          "type": "uint256[]"
        },
        {
          "indexed": false,
          "name": "room",
          "type": "uint256"
        },
        {
          "indexed": false,
          "name": "newGuest",
          "type": "address"
        },
        {
          "indexed": false,
          "name": "bookingHash",
          "type": "bytes32"
        }
      ],
      "name": "BookingChanged",
      "type": "event"
    },
    {
      "anonymous": false,
      "inputs": [
        {
          "indexed": false,
          "name": "roomType",
          "type": "string"
        },
        {
          "indexed": false,
          "name": "nights",
          "type": "uint256[]"
        },
        {
          "indexed": false,
          "name": "room",
          "type": "uint256"
        },
        {
          "indexed": false,
          "name": "guest",
          "type": "address"
        },
        {
          "indexed": false,
          "name": "bookingHash",
          "type": "bytes32"
        }
      ],
      "name": "BookingDone",
      "type": "event"
    },
    {
      "anonymous": false,
      "inputs": [
        {
          "indexed": false,
          "name": "roomType",
          "type": "string"
        },
        {
          "indexed": false,
          "name": "newRooms",
          "type": "uint256"
        }
      ],
      "name": "RoomsAdded",
      "type": "event"
    },
    {
      "anonymous": false,
      "inputs": [
        {
          "indexed": false,
          "name": "msg",
          "type": "uint256"
        }
      ],
      "name": "log",
      "type": "event"
    },
    {
      "anonymous": false,
      "inputs": [
        {
          "indexed": true,
          "name": "previousOwner",
          "type": "address"
        }
      ],
      "name": "OwnershipRenounced",
      "type": "event"
    },
    {
      "anonymous": false,
      "inputs": [
        {
          "indexed": true,
          "name": "previousOwner",
          "type": "address"
        },
        {
          "indexed": true,
          "name": "newOwner",
          "type": "address"
        }
      ],
      "name": "OwnershipTransferred",
      "type": "event"
    },
    {
      "constant": false,
      "inputs": [
        {
          "name": "_offerSigner",
          "type": "address"
        },
        {
          "name": "_lifToken",
          "type": "address"
        }
      ],
      "name": "edit",
      "outputs": [],
      "payable": false,
      "stateMutability": "nonpayable",
      "type": "function"
    },
    {
      "constant": false,
      "inputs": [
        {
          "name": "_beforeTime",
          "type": "uint256"
        },
        {
          "name": "_dividedBy",
          "type": "uint8"
        }
      ],
      "name": "addRefund",
      "outputs": [],
      "payable": false,
      "stateMutability": "nonpayable",
      "type": "function"
    },
    {
      "constant": false,
      "inputs": [
        {
          "name": "_refundIndex",
          "type": "uint8"
        },
        {
          "name": "_beforeTime",
          "type": "uint256"
        },
        {
          "name": "_dividedBy",
          "type": "uint8"
        }
      ],
      "name": "changeRefund",
      "outputs": [],
      "payable": false,
      "stateMutability": "nonpayable",
      "type": "function"
    },
    {
      "constant": false,
      "inputs": [
        {
          "name": "roomType",
          "type": "string"
        },
        {
          "name": "amount",
          "type": "uint256"
        }
      ],
      "name": "addRooms",
      "outputs": [],
      "payable": false,
      "stateMutability": "nonpayable",
      "type": "function"
    },
    {
      "constant": false,
      "inputs": [
        {
          "name": "roomType",
          "type": "string"
        },
        {
          "name": "_nights",
          "type": "uint256[]"
        },
        {
          "name": "room",
          "type": "uint256"
        },
        {
          "name": "bookingHash",
          "type": "bytes32"
        },
        {
          "name": "isEther",
          "type": "bool"
        }
      ],
      "name": "cancelBooking",
      "outputs": [],
      "payable": false,
      "stateMutability": "nonpayable",
      "type": "function"
    },
    {
      "constant": false,
      "inputs": [],
      "name": "withdraw",
      "outputs": [],
      "payable": false,
      "stateMutability": "nonpayable",
      "type": "function"
    },
    {
      "constant": false,
      "inputs": [
        {
          "name": "pricePerNight",
          "type": "uint256"
        },
        {
          "name": "offerTimestamp",
          "type": "uint256"
        },
        {
          "name": "offerSignature",
          "type": "bytes"
        },
        {
          "name": "roomType",
          "type": "string"
        },
        {
          "name": "_nights",
          "type": "uint256[]"
        },
        {
          "name": "bookingHash",
          "type": "bytes32"
        }
      ],
      "name": "bookWithEth",
      "outputs": [],
      "payable": true,
      "stateMutability": "payable",
      "type": "function"
    },
    {
      "constant": false,
      "inputs": [
        {
          "name": "pricePerNight",
          "type": "uint256"
        },
        {
          "name": "offerTimestamp",
          "type": "uint256"
        },
        {
          "name": "offerSignature",
          "type": "bytes"
        },
        {
          "name": "roomType",
          "type": "string"
        },
        {
          "name": "_nights",
          "type": "uint256[]"
        },
        {
          "name": "bookingHash",
          "type": "bytes32"
        }
      ],
      "name": "bookWithLif",
      "outputs": [],
      "payable": false,
      "stateMutability": "nonpayable",
      "type": "function"
    },
    {
      "constant": true,
      "inputs": [
        {
          "name": "roomType",
          "type": "string"
        }
      ],
      "name": "totalRooms",
      "outputs": [
        {
          "name": "",
          "type": "uint256"
        }
      ],
      "payable": false,
      "stateMutability": "view",
      "type": "function"
    },
    {
      "constant": true,
      "inputs": [
        {
          "name": "roomType",
          "type": "string"
        },
        {
          "name": "room",
          "type": "uint256"
        },
        {
          "name": "night",
          "type": "uint256"
        }
      ],
      "name": "getBooking",
      "outputs": [
        {
          "name": "",
          "type": "address"
        },
        {
          "name": "",
          "type": "uint256"
        },
        {
          "name": "",
          "type": "bytes32"
        },
        {
          "name": "",
          "type": "bool"
        }
      ],
      "payable": false,
      "stateMutability": "view",
      "type": "function"
    },
    {
      "constant": true,
      "inputs": [
        {
          "name": "roomType",
          "type": "string"
        },
        {
          "name": "_nights",
          "type": "uint256[]"
        },
        {
          "name": "room",
          "type": "uint256"
        }
      ],
      "name": "roomAvailable",
      "outputs": [
        {
          "name": "",
          "type": "bool"
        }
      ],
      "payable": false,
      "stateMutability": "view",
      "type": "function"
    },
    {
      "constant": true,
      "inputs": [
        {
          "name": "roomType",
          "type": "string"
        },
        {
          "name": "_nights",
          "type": "uint256[]"
        }
      ],
      "name": "roomsAvailable",
      "outputs": [
        {
          "name": "",
          "type": "uint256[]"
        }
      ],
      "payable": false,
      "stateMutability": "view",
      "type": "function"
    }
  ],
  "bytecode": "0x608060405234801561001057600080fd5b5060405160808062002659833981016040908152815160208301519183015160609093015160008054600160a060020a03191633179055909290600160a060020a038416151561005f57600080fd5b600160a060020a038316151561007457600080fd5b6000821161008157600080fd5b42811161008d57600080fd5b60018054600160a060020a03958616600160a060020a031991821617909155600680549490951693169290921790925560059190915560025561258380620000d66000396000f3006080604052600436106101115763ffffffff7c01000000000000000000000000000000000000000000000000000000006000350416630c45e8d78114610116578063143fcbbe146101f85780631b955df41461029b578063239a2545146102c057806331d4ac45146102e757806338fab8c5146103c05780633ccfd60b146103f157806345b50255146104065780635277fda51461049a578063566bd6c314610566578063715018a61461057b578063847778ad146105905780638da5cb5b146105b7578063af6fae22146105cc578063b2e02fc114610674578063dab8ef3814610692578063e36bd0f3146106ed578063e6dd9a8d14610720578063f221fda014610735578063f2fde38b1461078e575b600080fd5b34801561012257600080fd5b506040805160206004803580820135601f81018490048402850184019095528484526101a8943694929360249392840191908190840183828082843750506040805187358901803560208181028481018201909552818452989b9a9989019892975090820195509350839250850190849080828437509497506107af9650505050505050565b60408051602080825283518183015283519192839290830191858101910280838360005b838110156101e45781810151838201526020016101cc565b505050509050019250505060405180910390f35b34801561020457600080fd5b506040805160206004803580820135601f8101849004840285018401909552848452610299943694929360249392840191908190840183828082843750506040805187358901803560208181028481018201909552818452989b9a9989019892975090820195509350839250850190849080828437509497505084359550505060208301359260400135151591506109f39050565b005b3480156102a757600080fd5b5061029960ff600435811690602435906044351661101f565b3480156102cc57600080fd5b506102d56110d9565b60408051918252519081900360200190f35b3480156102f357600080fd5b50604080516020600460443581810135601f810184900484028501840190955284845261029994823594602480359536959460649492019190819084018382808284375050604080516020601f89358b018035918201839004830284018301909452808352979a999881019791965091820194509250829150840183828082843750506040805187358901803560208181028481018201909552818452989b9a99890198929750908201955093508392508501908490808284375094975050933594506110df9350505050565b3480156103cc57600080fd5b506103d56113b0565b60408051600160a060020a039092168252519081900360200190f35b3480156103fd57600080fd5b506102996113bf565b34801561041257600080fd5b506040805160206004803580820135601f81018490048402850184019095528484526104689436949293602493928401919081908401838280828437509497505084359550505060209092013591506115549050565b60408051600160a060020a03909516855260208501939093528383019190915215156060830152519081900360800190f35b604080516020600460443581810135601f810184900484028501840190955284845261029994823594602480359536959460649492019190819084018382808284375050604080516020601f89358b018035918201839004830284018301909452808352979a999881019791965091820194509250829150840183828082843750506040805187358901803560208181028481018201909552818452989b9a998901989297509082019550935083925085019084908082843750949750509335945061175e9350505050565b34801561057257600080fd5b506103d56118cf565b34801561058757600080fd5b506102996118de565b34801561059c57600080fd5b50610299600160a060020a036004358116906024351661194a565b3480156105c357600080fd5b506103d56119c6565b3480156105d857600080fd5b506040805160206004803580820135601f8101849004840285018401909552848452610660943694929360249392840191908190840183828082843750506040805187358901803560208181028481018201909552818452989b9a99890198929750908201955093508392508501908490808284375094975050933594506119d59350505050565b604080519115158252519081900360200190f35b34801561068057600080fd5b5061029960043560ff60243516611b4f565b34801561069e57600080fd5b506040805160206004803580820135601f81018490048402850184019095528484526102999436949293602493928401919081908401838280828437509497505093359450611c2d9350505050565b3480156106f957600080fd5b50610705600435611db6565b6040805192835260ff90911660208301528051918290030190f35b34801561072c57600080fd5b506102d5611de5565b34801561074157600080fd5b506040805160206004803580820135601f81018490048402850184019095528484526102d5943694929360249392840191908190840183828082843750949750611deb9650505050505050565b34801561079a57600080fd5b50610299600160a060020a0360043516611e53565b60608060008060055485828151811015156107c657fe5b6020908102909101015111156107db57600080fd5b6003866040518082805190602001908083835b6020831061080d5780518252601f1990920191602091820191016107ee565b51815160209384036101000a600019018019909216911617905292019485525060408051948590038201852054808652808302860190920190529150508015610860578160200160208202803883390190505b509250600191505b6003866040518082805190602001908083835b6020831061089a5780518252601f19909201916020918201910161087b565b51815160209384036101000a6000190180199092169116179052920194855250604051938490030190922054841191506109e69050578183600184038151811015156108e257fe5b602090810290910101525060005b84518110156109db576000600160a060020a03166003876040518082805190602001908083835b602083106109365780518252601f199092019160209182019101610917565b6001836020036101000a03801982511681845116808217855250505050505090500191505090815260200160405180910390206001016000878481518110151561097c57fe5b602090810290910181015182528181019290925260409081016000908120868252909252902054600160a060020a0316146109d357600083600184038151811015156109c457fe5b602090810290910101526109db565b6001016108f0565b600190910190610868565b8293505b50505092915050565b600080805b8651821015610db95733600160a060020a03166003896040518082805190602001908083835b60208310610a3d5780518252601f199092019160209182019101610a1e565b6001836020036101000a038019825116818451168082178552505050505050905001915050908152602001604051809103902060010160008985815181101515610a8357fe5b6020908102909101810151825281810192909252604090810160009081208a8252909252902054600160a060020a031614610abd57600080fd5b8315156003896040518082805190602001908083835b60208310610af25780518252601f199092019160209182019101610ad3565b6001836020036101000a038019825116818451168082178552505050505050905001915050908152602001604051809103902060010160008985815181101515610b3857fe5b6020908102909101810151825281810192909252604090810160009081208a825290925290206003015460ff16151514610b7157600080fd5b84600019166003896040518082805190602001908083835b60208310610ba85780518252601f199092019160209182019101610b89565b6001836020036101000a038019825116818451168082178552505050505050905001915050908152602001604051809103902060010160008985815181101515610bee57fe5b6020908102909101810151825281810192909252604090810160009081208a825290925290206001015414610c2257600080fd5b610cd96003896040518082805190602001908083835b60208310610c575780518252601f199092019160209182019101610c38565b6001836020036101000a038019825116818451168082178552505050505050905001915050908152602001604051809103902060010160008985815181101515610c9d57fe5b90602001906020020151815260200190815260200160002060008881526020019081526020016000206002015484611e7390919063ffffffff16565b92506003886040518082805190602001908083835b60208310610d0d5780518252601f199092019160209182019101610cee565b6001836020036101000a038019825116818451168082178552505050505050905001915050908152602001604051809103902060010160008884815181101515610d5357fe5b6020908102909101810151825281810192909252604090810160009081208982529092528120805473ffffffffffffffffffffffffffffffffffffffff1916815560018082018390556002820192909255600301805460ff1916905591909101906109f8565b5060009050805b600454821015610e4a57610dfb600483815481101515610ddc57fe5b600091825260209091206002918202015490549063ffffffff611e8616565b421015610e3f57610e38600483815481101515610e1457fe5b6000918252602090912060016002909202010154849060ff1663ffffffff611e9816565b9050610e4a565b600190910190610dc0565b8315610e8357604051339082156108fc029083906000818181858888f19350505050158015610e7d573d6000803e3d6000fd5b50610f1d565b600654604080517fa9059cbb000000000000000000000000000000000000000000000000000000008152336004820152602481018490529051600160a060020a039092169163a9059cbb916044808201926020929091908290030181600087803b158015610ef057600080fd5b505af1158015610f04573d6000803e3d6000fd5b505050506040513d6020811015610f1a57600080fd5b50505b6040805190810187905233606082018190526080820187905260a08083528a519083015289517f04cbb13937d328a394e427851cdc563989a4564d5701adc2b9767a5c9fc7c96b928b928b928b928b91819060208083019160c08401918a019080838360005b83811015610f9b578181015183820152602001610f83565b50505050905090810190601f168015610fc85780820380516001836020036101000a031916815260200191505b508381038252875181528751602091820191808a01910280838360005b83811015610ffd578181015183820152602001610fe5565b5050505090500197505050505050505060405180910390a15050505050505050565b600054600160a060020a0316331461103657600080fd5b60008360ff161115611073578160046001850360ff1681548110151561105857fe5b60009182526020909120600290910201541161107357600080fd5b8160048460ff1681548110151561108657fe5b60009182526020909120600290910201556004805482919060ff86169081106110ab57fe5b906000526020600020906002020160010160006101000a81548160ff021916908360ff160217905550505050565b60055481565b600080804288106110ef57600080fd5b600654604080517fdd62ed3e0000000000000000000000000000000000000000000000000000000081523360048201523060248201529051600160a060020a039092169163dd62ed3e916044808201926020929091908290030181600087803b15801561115b57600080fd5b505af115801561116f573d6000803e3d6000fd5b505050506040513d602081101561118557600080fd5b50518551909350839061119f908b9063ffffffff611ead16565b11156111aa57600080fd5b6111b48686611ed6565b9150600082116111c357600080fd5b6112ca868a8a876040516020018085805190602001908083835b602083106111fc5780518252601f1990920191602091820191016111dd565b51815160209384036101000a600019018019909216911617905292019586525084810193909352507f6c6966000000000000000000000000000000000000000000000000000000000060408085019190915260438085019290925280518085039092018252606390930192839052805190935082918401908083835b602083106112975780518252601f199092019160209182019101611278565b5181516020939093036101000a600019018019909116921691909117905260405192018290039091209250612061915050565b90506112dc818863ffffffff61209f16565b600154600160a060020a039081169116146112f657600080fd5b61130686868433888e600061216f565b600654604080517f23b872dd000000000000000000000000000000000000000000000000000000008152336004820152306024820152604481018690529051600160a060020a03909216916323b872dd916064808201926020929091908290030181600087803b15801561137957600080fd5b505af115801561138d573d6000803e3d6000fd5b505050506040513d60208110156113a357600080fd5b5050505050505050505050565b600654600160a060020a031681565b600054600160a060020a031633146113d657600080fd5b60025442116113e457600080fd5b60065460008054604080517f70a082310000000000000000000000000000000000000000000000000000000081523060048201529051600160a060020a039485169463a9059cbb9493169285926370a082319260248083019360209383900390910190829087803b15801561145857600080fd5b505af115801561146c573d6000803e3d6000fd5b505050506040513d602081101561148257600080fd5b5051604080517c010000000000000000000000000000000000000000000000000000000063ffffffff8616028152600160a060020a03909316600484015260248301919091525160448083019260209291908290030181600087803b1580156114ea57600080fd5b505af11580156114fe573d6000803e3d6000fd5b505050506040513d602081101561151457600080fd5b505060008054604051600160a060020a0390911691303180156108fc02929091818181858888f19350505050158015611551573d6000803e3d6000fd5b50565b6000806000806003876040518082805190602001908083835b6020831061158c5780518252601f19909201916020918201910161156d565b51815160209384036101000a600019018019909216911617905292019485525060408051948590038201852060008b8152600190910183528181208c8252835220548b51600160a060020a0390911694600394508c9350918291908401908083835b6020831061160d5780518252601f1990920191602091820191016115ee565b51815160209384036101000a600019018019909216911617905292019485525060408051948590038201852060008c8152600190910183528181208d8252835220600201548c519094600394508d9350918291908401908083835b602083106116875780518252601f199092019160209182019101611668565b51815160209384036101000a600019018019909216911617905292019485525060408051948590038201852060008d8152600191820184528281208f825284529190912001548d519094600394508e9350918291908401908083835b602083106117025780518252601f1990920191602091820191016116e3565b51815160209384036101000a60001901801990921691161790529201948552506040805194859003820190942060009c8d526001018152838c209c8c529b909b525090972060030154919990985095965060ff16949350505050565b60008042871061176d57600080fd5b600254421061177b57600080fd5b3461179085518a611ead90919063ffffffff16565b111561179b57600080fd5b6117a58585611ed6565b9150600082116117b457600080fd5b611889858989866040516020018085805190602001908083835b602083106117ed5780518252601f1990920191602091820191016117ce565b51815160001960209485036101000a0190811690199190911617905292019586525084810193909352507f65746800000000000000000000000000000000000000000000000000000000006040808501919091526043808501929092528051808503909201825260639093019283905280519093508291840190808383602083106112975780518252601f199092019160209182019101611278565b905061189b818763ffffffff61209f16565b600154600160a060020a039081169116146118b557600080fd5b6118c585858433878d600161216f565b5050505050505050565b600154600160a060020a031681565b600054600160a060020a031633146118f557600080fd5b60008054604051600160a060020a03909116917ff8df31144d9c2f0f6b59d69b8b98abd5459d07f2742c4df920b25aae33c6482091a26000805473ffffffffffffffffffffffffffffffffffffffff19169055565b600054600160a060020a0316331461196157600080fd5b600160a060020a038216151561197657600080fd5b600160a060020a038116151561198b57600080fd5b60018054600160a060020a0393841673ffffffffffffffffffffffffffffffffffffffff199182161790915560068054929093169116179055565b600054600160a060020a031681565b6000806003856040518082805190602001908083835b60208310611a0a5780518252601f1990920191602091820191016119eb565b51815160209384036101000a60001901801990921691161790529201948552506040519384900301909220548511159150611a46905057600080fd5b5060005b8351811015611b42576005548482815181101515611a6457fe5b602090810290910101511115611a7957600080fd5b6000600160a060020a03166003866040518082805190602001908083835b60208310611ab65780518252601f199092019160209182019101611a97565b6001836020036101000a038019825116818451168082178552505050505050905001915050908152602001604051809103902060010160008684815181101515611afc57fe5b602090810290910181015182528181019290925260409081016000908120878252909252902054600160a060020a031614611b3a5760009150611b47565b600101611a4a565b600191505b509392505050565b600054600160a060020a03163314611b6657600080fd5b60045460001015611ba157600480548391906000198101908110611b8657fe5b600091825260209091206002909102015411611ba157600080fd5b6040805180820190915291825260ff908116602083019081526004805460018101825560009190915292517f8a35acfbc15ff81a39ae7d344fd709f28e8600b4aa8c65c6b64bfe7fe36bd19b600290940293840155517f8a35acfbc15ff81a39ae7d344fd709f28e8600b4aa8c65c6b64bfe7fe36bd19c909201805460ff191692909116919091179055565b600054600160a060020a03163314611c4457600080fd5b611caf816003846040518082805190602001908083835b60208310611c7a5780518252601f199092019160209182019101611c5b565b51815160209384036101000a600019018019909216911617905292019485525060405193849003019092205492915050611e73565b6003836040518082805190602001908083835b60208310611ce15780518252601f199092019160209182019101611cc2565b51815160209384036101000a600019018019909216911617905292019485525060408051948590038201852095909555838101869052848452865194840194909452505083517fb3266cfa55c21c2dd0633bd8135cd56c44ea7e827115ddacb5936c18f88b8844928592859290918291606083019186019080838360005b83811015611d77578181015183820152602001611d5f565b50505050905090810190601f168015611da45780820380516001836020036101000a031916815260200191505b50935050505060405180910390a15050565b6004805482908110611dc457fe5b60009182526020909120600290910201805460019091015490915060ff1682565b60025481565b60006003826040518082805190602001908083835b60208310611e1f5780518252601f199092019160209182019101611e00565b51815160209384036101000a6000190180199092169116179052920194855250604051938490030190922054949350505050565b600054600160a060020a03163314611e6a57600080fd5b611551816124da565b81810182811015611e8057fe5b92915050565b600082821115611e9257fe5b50900390565b60008183811515611ea557fe5b049392505050565b6000821515611ebe57506000611e80565b50818102818382811515611ece57fe5b0414611e8057fe5b60008060008060006005548682815181101515611eef57fe5b602090810290910101511115611f0457600080fd5b600093506003876040518082805190602001908083835b60208310611f3a5780518252601f199092019160209182019101611f1b565b51815160209384036101000a6000190180199092169116179052920194855250604051938490030190922054935050505b6001821061205657506001915060008551811015612040576000600160a060020a03166003886040518082805190602001908083835b60208310611fc05780518252601f199092019160209182019101611fa1565b6001836020036101000a03801982511681845116808217855250505050505090500191505090815260200160405180910390206001016000888481518110151561200657fe5b602090810290910181015182528181019290925260409081016000908120868252909252902054600160a060020a03161461204057600092505b821561204a578193505b60001990910190611f6b565b509195945050505050565b604080517f19457468657265756d205369676e6564204d6573736167653a0a3332000000008152601c8101839052905190819003603c019020919050565b600080600080845160411415156120b957600093506109ea565b50505060208201516040830151606084015160001a601b60ff821610156120de57601b015b8060ff16601b141580156120f657508060ff16601c14155b1561210457600093506109ea565b60408051600080825260208083018085528a905260ff8516838501526060830187905260808301869052925160019360a0808501949193601f19840193928390039091019190865af115801561215e573d6000803e3d6000fd5b5050506020604051035193506109ea565b60005b865181101561245457846003896040518082805190602001908083835b602083106121ae5780518252601f19909201916020918201910161218f565b6001836020036101000a0380198251168184511680821785525050505050509050019150509081526020016040518091039020600101600089848151811015156121f457fe5b906020019060200201518152602001908152602001600020600088815260200190815260200160002060000160006101000a815481600160a060020a030219169083600160a060020a03160217905550836003896040518082805190602001908083835b602083106122775780518252601f199092019160209182019101612258565b6001836020036101000a0380198251168184511680821785525050505050509050019150509081526020016040518091039020600101600089848151811015156122bd57fe5b90602001906020020151815260200190815260200160002060008881526020019081526020016000206001018160001916905550826003896040518082805190602001908083835b602083106123245780518252601f199092019160209182019101612305565b6001836020036101000a03801982511681845116808217855250505050505090500191505090815260200160405180910390206001016000898481518110151561236a57fe5b906020019060200201518152602001908152602001600020600088815260200190815260200160002060020181905550816003896040518082805190602001908083835b602083106123cd5780518252601f1990920191602091820191016123ae565b6001836020036101000a03801982511681845116808217855250505050505090500191505090815260200160405180910390206001016000898481518110151561241357fe5b602090810291909101810151825281810192909252604090810160009081208a82529092529020600301805460ff1916911515919091179055600101612172565b60408051908101879052600160a060020a03861660608201526080810185905260a080825289519082015288517f15f9822d0e9ebbc4b7e7e4bf858f810e044917296ecfd0900ca509e10898d6bd918a918a918a918a918a91819060208083019160c08401918a0190808383600083811015610f9b578181015183820152602001610f83565b600160a060020a03811615156124ef57600080fd5b60008054604051600160a060020a03808516939216917f8be0079c531659141344cd1fd0a4f28419497f9722a3daafe3b4186f6b6457e091a36000805473ffffffffffffffffffffffffffffffffffffffff1916600160a060020a03929092169190911790555600a165627a7a72305820f2bb3c7bdc31c082d12f635d8009837608804dd2a511cda0b64092b199c03c5c0029",
  "source": "pragma solidity ^0.4.24;\n\nimport \"zeppelin-solidity/contracts/ownership/Ownable.sol\";\nimport \"zeppelin-solidity/contracts/math/SafeMath.sol\";\nimport \"zeppelin-solidity/contracts/token/ERC20/ERC20.sol\";\nimport \"zeppelin-solidity/contracts/ECRecovery.sol\";\n\n/**\n * @title BookingPoC\n * @dev A contract to offer hotel rooms for booking, the payment can be done\n * with ETH or Lif\n */\ncontract BookingPoC is Ownable {\n\n  using SafeMath for uint256;\n  using ECRecovery for bytes32;\n\n  // The account that will sign the offers\n  address public offerSigner;\n\n  // The time where no more bookings can be done\n  uint256 public endBookings;\n\n  // A mapping of the rooms booked by night, it saves the guest address by\n  // room/night\n  // RoomType => Night => Room => Booking\n  struct Booking {\n    address guest;\n    bytes32 bookingHash;\n    uint256 payed;\n    bool isEther;\n  }\n  struct RoomType {\n    uint256 totalRooms;\n    mapping(uint256 => mapping(uint256 => Booking)) nights;\n  }\n  mapping(string => RoomType) rooms;\n\n  // An array of the refund polices, it has to be ordered by beforeTime\n  struct Refund {\n    uint256 beforeTime;\n    uint8 dividedBy;\n  }\n  Refund[] public refunds;\n\n  // The total amount of nights offered for booking\n  uint256 public totalNights;\n\n  // The ERC20 lifToken that will be used for payment\n  ERC20 public lifToken;\n\n  event BookingCanceled(\n    string roomType, uint256[] nights, uint256 room,\n    address newGuest, bytes32 bookingHash\n  );\n\n  event BookingChanged(\n    string roomType, uint256[] nights, uint256 room,\n    address newGuest, bytes32 bookingHash\n  );\n\n  event BookingDone(\n    string roomType, uint256[] nights, uint256 room,\n    address guest, bytes32 bookingHash\n  );\n\n  event RoomsAdded(string roomType, uint256 newRooms);\n\n  /**\n   * @dev Constructor\n   * @param _offerSigner Address of the account that will sign offers\n   * @param _lifToken Address of the Lif token contract\n   * @param _totalNights The max amount of nights to be booked\n   */\n  constructor(\n    address _offerSigner, address _lifToken,\n    uint256 _totalNights, uint256 _endBookings\n  ) public {\n    require(_offerSigner != address(0));\n    require(_lifToken != address(0));\n    require(_totalNights > 0);\n    require(_endBookings > now);\n    offerSigner = _offerSigner;\n    lifToken = ERC20(_lifToken);\n    totalNights = _totalNights;\n    endBookings = _endBookings;\n  }\n\n  /**\n   * @dev Change the signer or lif token addresses, only called by owner\n   * @param _offerSigner Address of the account that will sign offers\n   * @param _lifToken Address of the Lif token contract\n   */\n  function edit(address _offerSigner, address _lifToken) onlyOwner public {\n    require(_offerSigner != address(0));\n    require(_lifToken != address(0));\n    offerSigner = _offerSigner;\n    lifToken = ERC20(_lifToken);\n  }\n\n  /**\n   * @dev Add a refund policy\n   * @param _beforeTime The time before this refund can be executed\n   * @param _dividedBy The divisor of the payment value\n   */\n  function addRefund(uint256 _beforeTime, uint8 _dividedBy) onlyOwner public {\n    if (refunds.length > 0)\n      require(refunds[refunds.length-1].beforeTime > _beforeTime);\n    refunds.push(Refund(_beforeTime, _dividedBy));\n  }\n\n  /**\n   * @dev Change a refund policy\n   * @param _beforeTime The time before this refund can be executed\n   * @param _dividedBy The divisor of the payment value\n   */\n  function changeRefund(\n    uint8 _refundIndex, uint256 _beforeTime, uint8 _dividedBy\n  ) onlyOwner public {\n    if (_refundIndex > 0)\n      require(refunds[_refundIndex-1].beforeTime > _beforeTime);\n    refunds[_refundIndex].beforeTime = _beforeTime;\n    refunds[_refundIndex].dividedBy = _dividedBy;\n  }\n\n  /**\n   * @dev Increase the amount of rooms offered, only called by owner\n   * @param roomType The room type to be added\n   * @param amount The amount of rooms to be increased\n   */\n  function addRooms(string roomType, uint256 amount) onlyOwner public {\n    rooms[roomType].totalRooms = rooms[roomType].totalRooms.add(amount);\n    emit RoomsAdded(roomType, amount);\n  }\n\n  /**\n   * @dev Book a room for a certain address, internal function\n   * @param roomType The room type to be booked\n   * @param _nights The nights that we want to book\n   * @param room The room that wants to be booked\n   * @param guest The address of the guest that will book the room\n   */\n  function bookRoom(\n    string roomType, uint256[] _nights, uint256 room,\n    address guest, bytes32 bookingHash, uint256 weiPerNight, bool isEther\n  ) internal {\n    for (uint i = 0; i < _nights.length; i ++) {\n      rooms[roomType].nights[_nights[i]][room].guest = guest;\n      rooms[roomType].nights[_nights[i]][room].bookingHash = bookingHash;\n      rooms[roomType].nights[_nights[i]][room].payed = weiPerNight;\n      rooms[roomType].nights[_nights[i]][room].isEther = isEther;\n    }\n    emit BookingDone(roomType, _nights, room, guest, bookingHash);\n  }\n\n  event log(uint256 msg);\n\n  /**\n   * @dev Cancel a booking\n   * @param roomType The room type to be booked\n   * @param _nights The nights that we want to book\n   * @param room The room that wants to be booked\n   */\n  function cancelBooking(\n    string roomType, uint256[] _nights,\n    uint256 room, bytes32 bookingHash, bool isEther\n  ) public {\n\n    // Check the booking and delete it\n    uint256 totalPayed = 0;\n    for (uint i = 0; i < _nights.length; i ++) {\n      require(rooms[roomType].nights[_nights[i]][room].guest == msg.sender);\n      require(rooms[roomType].nights[_nights[i]][room].isEther == isEther);\n      require(rooms[roomType].nights[_nights[i]][room].bookingHash == bookingHash);\n      totalPayed = totalPayed.add(\n        rooms[roomType].nights[_nights[i]][room].payed\n      );\n      delete rooms[roomType].nights[_nights[i]][room];\n    }\n\n    // Calculate refund amount\n    uint256 refundAmount = 0;\n    for (i = 0; i < refunds.length; i ++) {\n      if (now < endBookings.sub(refunds[i].beforeTime)){\n        refundAmount = totalPayed.div(refunds[i].dividedBy);\n        break;\n      }\n    }\n\n    // Forward refund funds\n    if (isEther)\n      msg.sender.transfer(refundAmount);\n    else\n      lifToken.transfer(msg.sender, refundAmount);\n\n    emit BookingCanceled(roomType, _nights, room, msg.sender, bookingHash);\n  }\n\n  /**\n   * @dev Withdraw tokens and eth, only from owner contract\n   */\n  function withdraw() public onlyOwner {\n    require(now > endBookings);\n    lifToken.transfer(owner, lifToken.balanceOf(address(this)));\n    owner.transfer(address(this).balance);\n  }\n\n  /**\n   * @dev Book a room paying with ETH\n   * @param pricePerNight The price per night in wei\n   * @param offerTimestamp The timestamp of when the offer ends\n   * @param offerSignature The signature provided by the offer signer\n   * @param roomType The room type that the guest wants to book\n   * @param _nights The nights that the guest wants to book\n   */\n  function bookWithEth(\n    uint256 pricePerNight,\n    uint256 offerTimestamp,\n    bytes offerSignature,\n    string roomType,\n    uint256[] _nights,\n    bytes32 bookingHash\n  ) public payable {\n    // Check that the offer is still valid\n    require(offerTimestamp < now);\n    require(now < endBookings);\n\n    // Check the eth sent\n    require(pricePerNight.mul(_nights.length) <= msg.value);\n\n    // Check if there is at least one room available\n    uint256 available = firstRoomAvailable(roomType, _nights);\n    require(available > 0);\n\n    // Check the signer of the offer is the right address\n    bytes32 priceSigned = keccak256(abi.encodePacked(\n      roomType, pricePerNight, offerTimestamp, \"eth\", bookingHash\n    )).toEthSignedMessageHash();\n    require(offerSigner == priceSigned.recover(offerSignature));\n\n    // Assign the available room to the guest\n    bookRoom(\n      roomType, _nights, available, msg.sender,\n      bookingHash, pricePerNight, true\n    );\n  }\n\n  /**\n   * @dev Book a room paying with Lif\n   * @param pricePerNight The price per night in wei\n   * @param offerTimestamp The timestamp of when the offer ends\n   * @param offerSignature The signature provided by the offer signer\n   * @param roomType The room type that the guest wants to book\n   * @param _nights The nights that the guest wants to book\n   */\n  function bookWithLif(\n    uint256 pricePerNight,\n    uint256 offerTimestamp,\n    bytes offerSignature,\n    string roomType,\n    uint256[] _nights,\n    bytes32 bookingHash\n  ) public {\n    // Check that the offer is still valid\n    require(offerTimestamp < now);\n\n    // Check the amount of lifTokens allowed to be spent by this contract\n    uint256 lifTokenAllowance = lifToken.allowance(msg.sender, address(this));\n    require(pricePerNight.mul(_nights.length) <= lifTokenAllowance);\n\n    // Check if there is at least one room available\n    uint256 available = firstRoomAvailable(roomType, _nights);\n    require(available > 0);\n\n    // Check the signer of the offer is the right address\n    bytes32 priceSigned = keccak256(abi.encodePacked(\n      roomType, pricePerNight, offerTimestamp, \"lif\", bookingHash\n    )).toEthSignedMessageHash();\n    require(offerSigner == priceSigned.recover(offerSignature));\n\n    // Assign the available room to the guest\n    bookRoom(\n      roomType, _nights, available, msg.sender,\n      bookingHash, pricePerNight, false\n    );\n\n    // Transfer the lifTokens to booking\n    lifToken.transferFrom(msg.sender, address(this), lifTokenAllowance);\n  }\n\n  /**\n   * @dev Get the total rooms for a room type\n   * @param roomType The room type that wants to be booked\n   */\n  function totalRooms(string roomType) view public returns (uint256) {\n    return rooms[roomType].totalRooms;\n  }\n\n  /**\n   * @dev Get a booking information\n   * @param roomType The room type\n   * @param room The room booked\n   * @param night The night of the booking\n   */\n  function getBooking(\n    string roomType, uint256 room, uint256 night\n  ) view public returns (address, uint256, bytes32, bool) {\n    return (\n      rooms[roomType].nights[night][room].guest,\n      rooms[roomType].nights[night][room].payed,\n      rooms[roomType].nights[night][room].bookingHash,\n      rooms[roomType].nights[night][room].isEther\n    );\n  }\n\n  /**\n   * @dev Get the availability of a specific room\n   * @param roomType The room type that wants to be booked\n   * @param _nights The nights to check availability\n   * @param room The room that wants to be booked\n   * @return bool If the room is available or not\n   */\n  function roomAvailable(\n    string roomType, uint256[] _nights, uint256 room\n  ) view public returns (bool) {\n    require(room <= rooms[roomType].totalRooms);\n    for (uint i = 0; i < _nights.length; i ++) {\n      require(_nights[i] <= totalNights);\n      if (rooms[roomType].nights[_nights[i]][room].guest != address(0))\n        return false;\n      }\n    return true;\n  }\n\n  /**\n   * @dev Get the available rooms for certain nights\n   * @param roomType The room type that wants to be booked\n   * @param _nights The nights to check availability\n   * @return uint256 Array of the rooms available for that nights\n   */\n  function roomsAvailable(\n    string roomType, uint256[] _nights\n  ) view public returns (uint256[]) {\n    require(_nights[i] <= totalNights);\n    uint256[] memory available = new uint256[](rooms[roomType].totalRooms);\n    for (uint z = 1; z <= rooms[roomType].totalRooms; z ++) {\n      available[z-1] = z;\n      for (uint i = 0; i < _nights.length; i ++)\n        if (rooms[roomType].nights[_nights[i]][z].guest != address(0)) {\n          available[z-1] = 0;\n          break;\n        }\n    }\n    return available;\n  }\n\n  /**\n   * @dev Get the first available room for certain nights\n   * @param roomType The room type that wants to be booked\n   * @param _nights The nights to check availability\n   * @return uint256 The first available room\n   */\n  function firstRoomAvailable(\n    string roomType, uint256[] _nights\n  ) internal returns (uint256) {\n    require(_nights[i] <= totalNights);\n    uint256 available = 0;\n    bool isAvailable;\n    for (uint z = rooms[roomType].totalRooms; z >= 1 ; z --) {\n      isAvailable = true;\n      for (uint i = 0; i < _nights.length; i ++) {\n        if (rooms[roomType].nights[_nights[i]][z].guest != address(0))\n          isAvailable = false;\n          break;\n        }\n      if (isAvailable)\n        available = z;\n    }\n    return available;\n  }\n\n}\n",
  "sourcePath": "/home/blackjak/Projects/winding-tree/crypto-booking/contracts/contracts/BookingPoC.sol",
  "compiler": {
    "name": "solc",
    "version": "0.4.24+commit.e67f0147.Emscripten.clang"
  },
  "schemaVersion": "2.0.1",
  "updatedAt": "2018-08-04T20:08:00.454Z"
}