{
  "contractName": "BookingPoC",
  "abi": [
    {
      "constant": true,
      "inputs": [],
      "name": "totalNights",
      "outputs": [
        {
          "name": "",
          "type": "uint256"
        }
      ],
      "payable": false,
      "stateMutability": "view",
      "type": "function"
    },
    {
      "constant": true,
      "inputs": [],
      "name": "lifToken",
      "outputs": [
        {
          "name": "",
          "type": "address"
        }
      ],
      "payable": false,
      "stateMutability": "view",
      "type": "function"
    },
    {
      "constant": true,
      "inputs": [],
      "name": "offerSigner",
      "outputs": [
        {
          "name": "",
          "type": "address"
        }
      ],
      "payable": false,
      "stateMutability": "view",
      "type": "function"
    },
    {
      "constant": false,
      "inputs": [],
      "name": "renounceOwnership",
      "outputs": [],
      "payable": false,
      "stateMutability": "nonpayable",
      "type": "function"
    },
    {
      "constant": true,
      "inputs": [],
      "name": "owner",
      "outputs": [
        {
          "name": "",
          "type": "address"
        }
      ],
      "payable": false,
      "stateMutability": "view",
      "type": "function"
    },
    {
      "constant": false,
      "inputs": [
        {
          "name": "_newOwner",
          "type": "address"
        }
      ],
      "name": "transferOwnership",
      "outputs": [],
      "payable": false,
      "stateMutability": "nonpayable",
      "type": "function"
    },
    {
      "inputs": [
        {
          "name": "_offerSigner",
          "type": "address"
        },
        {
          "name": "_lifToken",
          "type": "address"
        },
        {
          "name": "_totalNights",
          "type": "uint256"
        }
      ],
      "payable": false,
      "stateMutability": "nonpayable",
      "type": "constructor"
    },
    {
      "anonymous": false,
      "inputs": [
        {
          "indexed": false,
          "name": "roomType",
          "type": "string"
        },
        {
          "indexed": false,
          "name": "nights",
          "type": "uint256[]"
        },
        {
          "indexed": false,
          "name": "room",
          "type": "uint256"
        },
        {
          "indexed": false,
          "name": "newGuest",
          "type": "address"
        },
        {
          "indexed": false,
          "name": "bookingHash",
          "type": "bytes32"
        }
      ],
      "name": "BookingChanged",
      "type": "event"
    },
    {
      "anonymous": false,
      "inputs": [
        {
          "indexed": false,
          "name": "roomType",
          "type": "string"
        },
        {
          "indexed": false,
          "name": "nights",
          "type": "uint256[]"
        },
        {
          "indexed": false,
          "name": "room",
          "type": "uint256"
        },
        {
          "indexed": false,
          "name": "guest",
          "type": "address"
        },
        {
          "indexed": false,
          "name": "bookingHash",
          "type": "bytes32"
        }
      ],
      "name": "BookingDone",
      "type": "event"
    },
    {
      "anonymous": false,
      "inputs": [
        {
          "indexed": false,
          "name": "roomType",
          "type": "string"
        },
        {
          "indexed": false,
          "name": "newRooms",
          "type": "uint256"
        }
      ],
      "name": "RoomsAdded",
      "type": "event"
    },
    {
      "anonymous": false,
      "inputs": [
        {
          "indexed": true,
          "name": "previousOwner",
          "type": "address"
        }
      ],
      "name": "OwnershipRenounced",
      "type": "event"
    },
    {
      "anonymous": false,
      "inputs": [
        {
          "indexed": true,
          "name": "previousOwner",
          "type": "address"
        },
        {
          "indexed": true,
          "name": "newOwner",
          "type": "address"
        }
      ],
      "name": "OwnershipTransferred",
      "type": "event"
    },
    {
      "constant": false,
      "inputs": [
        {
          "name": "_offerSigner",
          "type": "address"
        },
        {
          "name": "_lifToken",
          "type": "address"
        }
      ],
      "name": "edit",
      "outputs": [],
      "payable": false,
      "stateMutability": "nonpayable",
      "type": "function"
    },
    {
      "constant": false,
      "inputs": [
        {
          "name": "roomType",
          "type": "string"
        },
        {
          "name": "amount",
          "type": "uint256"
        }
      ],
      "name": "addRooms",
      "outputs": [],
      "payable": false,
      "stateMutability": "nonpayable",
      "type": "function"
    },
    {
      "constant": false,
      "inputs": [
        {
          "name": "roomType",
          "type": "string"
        },
        {
          "name": "_nights",
          "type": "uint256[]"
        },
        {
          "name": "room",
          "type": "uint256"
        },
        {
          "name": "guest",
          "type": "address"
        },
        {
          "name": "bookingHash",
          "type": "bytes32"
        }
      ],
      "name": "changeBooking",
      "outputs": [],
      "payable": false,
      "stateMutability": "nonpayable",
      "type": "function"
    },
    {
      "constant": false,
      "inputs": [
        {
          "name": "pricePerNight",
          "type": "uint256"
        },
        {
          "name": "offerTimestamp",
          "type": "uint256"
        },
        {
          "name": "offerSignature",
          "type": "bytes"
        },
        {
          "name": "roomType",
          "type": "string"
        },
        {
          "name": "_nights",
          "type": "uint256[]"
        },
        {
          "name": "bookingHash",
          "type": "bytes32"
        }
      ],
      "name": "bookWithEth",
      "outputs": [],
      "payable": true,
      "stateMutability": "payable",
      "type": "function"
    },
    {
      "constant": false,
      "inputs": [
        {
          "name": "pricePerNight",
          "type": "uint256"
        },
        {
          "name": "offerTimestamp",
          "type": "uint256"
        },
        {
          "name": "offerSignature",
          "type": "bytes"
        },
        {
          "name": "roomType",
          "type": "string"
        },
        {
          "name": "_nights",
          "type": "uint256[]"
        },
        {
          "name": "bookingHash",
          "type": "bytes32"
        }
      ],
      "name": "bookWithLif",
      "outputs": [],
      "payable": false,
      "stateMutability": "nonpayable",
      "type": "function"
    },
    {
      "constant": true,
      "inputs": [
        {
          "name": "roomType",
          "type": "string"
        }
      ],
      "name": "totalRooms",
      "outputs": [
        {
          "name": "",
          "type": "uint256"
        }
      ],
      "payable": false,
      "stateMutability": "view",
      "type": "function"
    },
    {
      "constant": true,
      "inputs": [
        {
          "name": "roomType",
          "type": "string"
        },
        {
          "name": "_nights",
          "type": "uint256[]"
        },
        {
          "name": "room",
          "type": "uint256"
        }
      ],
      "name": "roomAvailable",
      "outputs": [
        {
          "name": "",
          "type": "bool"
        }
      ],
      "payable": false,
      "stateMutability": "view",
      "type": "function"
    },
    {
      "constant": true,
      "inputs": [
        {
          "name": "roomType",
          "type": "string"
        },
        {
          "name": "_nights",
          "type": "uint256[]"
        }
      ],
      "name": "roomsAvailable",
      "outputs": [
        {
          "name": "",
          "type": "uint256[]"
        }
      ],
      "payable": false,
      "stateMutability": "view",
      "type": "function"
    }
  ],
  "bytecode": "0x608060405234801561001057600080fd5b5060405160608061192f83398101604090815281516020830151919092015160008054600160a060020a03191633179055600160a060020a038316151561005657600080fd5b600160a060020a038216151561006b57600080fd5b6000811161007857600080fd5b60018054600160a060020a03948516600160a060020a0319918216179091556004805493909416921691909117909155600355611875806100ba6000396000f3006080604052600436106100cf5763ffffffff7c01000000000000000000000000000000000000000000000000000000006000350416630c45e8d781146100d4578063239a2545146101b657806331d4ac45146101dd57806338fab8c5146102b85780635277fda5146102e9578063566bd6c3146103b5578063715018a6146103ca578063847778ad146103df5780638da5cb5b14610406578063af6fae221461041b578063d44a2863146104c3578063dab8ef381461056a578063f221fda0146105c5578063f2fde38b1461061e575b600080fd5b3480156100e057600080fd5b506040805160206004803580820135601f8101849004840285018401909552848452610166943694929360249392840191908190840183828082843750506040805187358901803560208181028481018201909552818452989b9a99890198929750908201955093508392508501908490808284375094975061063f9650505050505050565b60408051602080825283518183015283519192839290830191858101910280838360005b838110156101a257818101518382015260200161018a565b505050509050019250505060405180910390f35b3480156101c257600080fd5b506101cb610883565b60408051918252519081900360200190f35b3480156101e957600080fd5b50604080516020600460443581810135601f81018490048402850184019095528484526102b694823594602480359536959460649492019190819084018382808284375050604080516020601f89358b018035918201839004830284018301909452808352979a999881019791965091820194509250829150840183828082843750506040805187358901803560208181028481018201909552818452989b9a99890198929750908201955093508392508501908490808284375094975050933594506108899350505050565b005b3480156102c457600080fd5b506102cd610b7a565b60408051600160a060020a039092168252519081900360200190f35b604080516020600460443581810135601f81018490048402850184019095528484526102b694823594602480359536959460649492019190819084018382808284375050604080516020601f89358b018035918201839004830284018301909452808352979a999881019791965091820194509250829150840183828082843750506040805187358901803560208181028481018201909552818452989b9a9989019892975090820195509350839250850190849080828437509497505093359450610b899350505050565b3480156103c157600080fd5b506102cd610d40565b3480156103d657600080fd5b506102b6610d4f565b3480156103eb57600080fd5b506102b6600160a060020a0360043581169060243516610dbb565b34801561041257600080fd5b506102cd610e37565b34801561042757600080fd5b506040805160206004803580820135601f81018490048402850184019095528484526104af943694929360249392840191908190840183828082843750506040805187358901803560208181028481018201909552818452989b9a9989019892975090820195509350839250850190849080828437509497505093359450610e469350505050565b604080519115158252519081900360200190f35b3480156104cf57600080fd5b506040805160206004803580820135601f81018490048402850184019095528484526102b6943694929360249392840191908190840183828082843750506040805187358901803560208181028481018201909552818452989b9a99890198929750908201955093508392508501908490808284375094975050843595505050506020820135600160a060020a031691604001359050610fc0565b34801561057657600080fd5b506040805160206004803580820135601f81018490048402850184019095528484526102b694369492936024939284019190819084018382808284375094975050933594506112659350505050565b3480156105d157600080fd5b506040805160206004803580820135601f81018490048402850184019095528484526101cb9436949293602493928401919081908401838280828437509497506113ee9650505050505050565b34801561062a57600080fd5b506102b6600160a060020a0360043516611456565b606080600080600354858281518110151561065657fe5b60209081029091010151111561066b57600080fd5b6002866040518082805190602001908083835b6020831061069d5780518252601f19909201916020918201910161067e565b51815160209384036101000a6000190180199092169116179052920194855250604080519485900382018520548086528083028601909201905291505080156106f0578160200160208202803883390190505b509250600191505b6002866040518082805190602001908083835b6020831061072a5780518252601f19909201916020918201910161070b565b51815160209384036101000a60001901801990921691161790529201948552506040519384900301909220548411915061087690505781836001840381518110151561077257fe5b602090810290910101525060005b845181101561086b576000600160a060020a03166002876040518082805190602001908083835b602083106107c65780518252601f1990920191602091820191016107a7565b6001836020036101000a03801982511681845116808217855250505050505090500191505090815260200160405180910390206001016000878481518110151561080c57fe5b602090810290910181015182528181019290925260409081016000908120868252909252902054600160a060020a031614610863576000836001840381518110151561085457fe5b6020908102909101015261086b565b600101610780565b6001909101906106f8565b8293505b50505092915050565b60035481565b600060608142881061089a57600080fd5b60048054604080517fdd62ed3e000000000000000000000000000000000000000000000000000000008152339381019390935230602484015251600160a060020a039091169163dd62ed3e9160448083019260209291908290030181600087803b15801561090757600080fd5b505af115801561091b573d6000803e3d6000fd5b505050506040513d602081101561093157600080fd5b50518551909350839061094b908b9063ffffffff61147916565b111561095657600080fd5b610960868661063f565b91506000825111151561097257600080fd5b610a79868a8a876040516020018085805190602001908083835b602083106109ab5780518252601f19909201916020918201910161098c565b51815160209384036101000a600019018019909216911617905292019586525084810193909352507f6c6966000000000000000000000000000000000000000000000000000000000060408085019190915260438085019290925280518085039092018252606390930192839052805190935082918401908083835b60208310610a465780518252601f199092019160209182019101610a27565b5181516020939093036101000a6000190180199091169216919091179052604051920182900390912092506114a8915050565b9050610a8b818863ffffffff6114e616565b600154600160a060020a03908116911614610aa557600080fd5b610aca8686846000815181101515610ab957fe5b9060200190602002015133886115b6565b6004805460008054604080517f23b872dd0000000000000000000000000000000000000000000000000000000081523395810195909552600160a060020a03918216602486015260448501889052519216926323b872dd9260648083019360209383900390910190829087803b158015610b4357600080fd5b505af1158015610b57573d6000803e3d6000fd5b505050506040513d6020811015610b6d57600080fd5b5050505050505050505050565b600454600160a060020a031681565b60606000428710610b9957600080fd5b34610bae85518a61147990919063ffffffff16565b1115610bb957600080fd5b610bc3858561063f565b915060008251111515610bd557600080fd5b610caa858989866040516020018085805190602001908083835b60208310610c0e5780518252601f199092019160209182019101610bef565b51815160001960209485036101000a0190811690199190911617905292019586525084810193909352507f6574680000000000000000000000000000000000000000000000000000000000604080850191909152604380850192909252805180850390920182526063909301928390528051909350829184019080838360208310610a465780518252601f199092019160209182019101610a27565b9050610cbc818763ffffffff6114e616565b600154600160a060020a03908116911614610cd657600080fd5b610cfb8585846000815181101515610cea57fe5b9060200190602002015133876115b6565b60008054604051600160a060020a03909116913480156108fc02929091818181858888f19350505050158015610d35573d6000803e3d6000fd5b505050505050505050565b600154600160a060020a031681565b600054600160a060020a03163314610d6657600080fd5b60008054604051600160a060020a03909116917ff8df31144d9c2f0f6b59d69b8b98abd5459d07f2742c4df920b25aae33c6482091a26000805473ffffffffffffffffffffffffffffffffffffffff19169055565b600054600160a060020a03163314610dd257600080fd5b600160a060020a0382161515610de757600080fd5b600160a060020a0381161515610dfc57600080fd5b60018054600160a060020a0393841673ffffffffffffffffffffffffffffffffffffffff199182161790915560048054929093169116179055565b600054600160a060020a031681565b6000806002856040518082805190602001908083835b60208310610e7b5780518252601f199092019160209182019101610e5c565b51815160209384036101000a60001901801990921691161790529201948552506040519384900301909220548511159150610eb7905057600080fd5b5060005b8351811015610fb3576003548482815181101515610ed557fe5b602090810290910101511115610eea57600080fd5b6000600160a060020a03166002866040518082805190602001908083835b60208310610f275780518252601f199092019160209182019101610f08565b6001836020036101000a038019825116818451168082178552505050505050905001915050908152602001604051809103902060010160008684815181101515610f6d57fe5b602090810290910181015182528181019290925260409081016000908120878252909252902054600160a060020a031614610fab5760009150610fb8565b600101610ebb565b600191505b509392505050565b60008054600160a060020a03163314610fd857600080fd5b5060005b845181101561115c57826002876040518082805190602001908083835b602083106110185780518252601f199092019160209182019101610ff9565b6001836020036101000a03801982511681845116808217855250505050505090500191505090815260200160405180910390206001016000878481518110151561105e57fe5b906020019060200201518152602001908152602001600020600086815260200190815260200160002060000160006101000a815481600160a060020a030219169083600160a060020a03160217905550816002876040518082805190602001908083835b602083106110e15780518252601f1990920191602091820191016110c2565b6001836020036101000a03801982511681845116808217855250505050505090500191505090815260200160405180910390206001016000878481518110151561112757fe5b602090810290910181015182528181019290925260409081016000908120888252909252902060019081019190915501610fdc565b60408051908101859052600160a060020a03841660608201526080810183905260a080825287519082015286517fca47434da61e6c0d802e45f6c0a4b4daf6609c7e32966d54aca2026bd7b935d89188918891889188918891819060208083019160c08401918a019080838360005b838110156111e35781810151838201526020016111cb565b50505050905090810190601f1680156112105780820380516001836020036101000a031916815260200191505b508381038252875181528751602091820191808a01910280838360005b8381101561124557818101518382015260200161122d565b5050505090500197505050505050505060405180910390a1505050505050565b600054600160a060020a0316331461127c57600080fd5b6112e7816002846040518082805190602001908083835b602083106112b25780518252601f199092019160209182019101611293565b51815160209384036101000a6000190180199092169116179052920194855250604051938490030190922054929150506117bf565b6002836040518082805190602001908083835b602083106113195780518252601f1990920191602091820191016112fa565b51815160209384036101000a600019018019909216911617905292019485525060408051948590038201852095909555838101869052848452865194840194909452505083517fb3266cfa55c21c2dd0633bd8135cd56c44ea7e827115ddacb5936c18f88b8844928592859290918291606083019186019080838360005b838110156113af578181015183820152602001611397565b50505050905090810190601f1680156113dc5780820380516001836020036101000a031916815260200191505b50935050505060405180910390a15050565b60006002826040518082805190602001908083835b602083106114225780518252601f199092019160209182019101611403565b51815160209384036101000a6000190180199092169116179052920194855250604051938490030190922054949350505050565b600054600160a060020a0316331461146d57600080fd5b611476816117cc565b50565b600082151561148a575060006114a2565b5081810281838281151561149a57fe5b04146114a257fe5b92915050565b604080517f19457468657265756d205369676e6564204d6573736167653a0a3332000000008152601c8101839052905190819003603c019020919050565b60008060008084516041141515611500576000935061087a565b50505060208201516040830151606084015160001a601b60ff8216101561152557601b015b8060ff16601b1415801561153d57508060ff16601c14155b1561154b576000935061087a565b60408051600080825260208083018085528a905260ff8516838501526060830187905260808301869052925160019360a0808501949193601f19840193928390039091019190865af11580156115a5573d6000803e3d6000fd5b50505060206040510351935061087a565b60005b845181101561173957826002876040518082805190602001908083835b602083106115f55780518252601f1990920191602091820191016115d6565b6001836020036101000a03801982511681845116808217855250505050505090500191505090815260200160405180910390206001016000878481518110151561163b57fe5b906020019060200201518152602001908152602001600020600086815260200190815260200160002060000160006101000a815481600160a060020a030219169083600160a060020a03160217905550816002876040518082805190602001908083835b602083106116be5780518252601f19909201916020918201910161169f565b6001836020036101000a03801982511681845116808217855250505050505090500191505090815260200160405180910390206001016000878481518110151561170457fe5b6020908102909101810151825281810192909252604090810160009081208882529092529020600190810191909155016115b9565b60408051908101859052600160a060020a03841660608201526080810183905260a080825287519082015286517f15f9822d0e9ebbc4b7e7e4bf858f810e044917296ecfd0900ca509e10898d6bd9188918891889188918891819060208083019160c08401918a01908083836000838110156111e35781810151838201526020016111cb565b818101828110156114a257fe5b600160a060020a03811615156117e157600080fd5b60008054604051600160a060020a03808516939216917f8be0079c531659141344cd1fd0a4f28419497f9722a3daafe3b4186f6b6457e091a36000805473ffffffffffffffffffffffffffffffffffffffff1916600160a060020a03929092169190911790555600a165627a7a723058209785c286b3fa424d9f9ffbcdbc540c2c8ddf9ededf621f4144a3124873e2a5d60029",
  "source": "pragma solidity ^0.4.24;\n\nimport \"zeppelin-solidity/contracts/ownership/Ownable.sol\";\nimport \"zeppelin-solidity/contracts/math/SafeMath.sol\";\nimport \"zeppelin-solidity/contracts/token/ERC20/ERC20.sol\";\nimport \"zeppelin-solidity/contracts/ECRecovery.sol\";\n\n/**\n * @title BookingPoC\n * @dev A contract to offer hotel rooms for booking, the payment can be done\n * with ETH or Lif\n */\ncontract BookingPoC is Ownable {\n\n  using SafeMath for uint256;\n  using ECRecovery for bytes32;\n\n  // The account that will sign the offers\n  address public offerSigner;\n\n  // A mapping of the rooms booked by night, it saves the guest address by\n  // room/night\n  // RoomType => Night => Room => Booking\n  struct Booking {\n    address guest;\n    bytes32 bookingHash;\n  }\n  struct RoomType {\n    uint256 totalRooms;\n    mapping(uint256 => mapping(uint256 => Booking)) nights;\n  }\n  mapping(string => RoomType) rooms;\n\n  // The total amount of nights offered for booking\n  uint256 public totalNights;\n\n  // The ERC20 lifToken that will be used for payment\n  ERC20 public lifToken;\n\n  event BookingChanged(\n    string roomType, uint256[] nights, uint256 room,\n    address newGuest, bytes32 bookingHash\n  );\n\n  event BookingDone(\n    string roomType, uint256[] nights, uint256 room,\n    address guest, bytes32 bookingHash\n  );\n\n  event RoomsAdded(string roomType, uint256 newRooms);\n\n  /**\n   * @dev Constructor\n   * @param _offerSigner Address of the account that will sign offers\n   * @param _lifToken Address of the Lif token contract\n   * @param _totalNights The max amount of nights to be booked\n   */\n  function BookingPoC(\n    address _offerSigner, address _lifToken, uint256 _totalNights\n  ) public {\n    require(_offerSigner != address(0));\n    require(_lifToken != address(0));\n    require(_totalNights > 0);\n    offerSigner = _offerSigner;\n    lifToken = ERC20(_lifToken);\n    totalNights = _totalNights;\n  }\n\n  /**\n   * @dev Change the signer or lif token addresses, only called by owner\n   * @param _offerSigner Address of the account that will sign offers\n   * @param _lifToken Address of the Lif token contract\n   */\n  function edit(address _offerSigner, address _lifToken) onlyOwner public {\n    require(_offerSigner != address(0));\n    require(_lifToken != address(0));\n    offerSigner = _offerSigner;\n    lifToken = ERC20(_lifToken);\n  }\n\n  /**\n   * @dev Increase the amount of rooms offered, only called by owner\n   * @param roomType The room type to be added\n   * @param amount The amount of rooms to be increased\n   */\n  function addRooms(string roomType, uint256 amount) onlyOwner public {\n    rooms[roomType].totalRooms = rooms[roomType].totalRooms.add(amount);\n    emit RoomsAdded(roomType, amount);\n  }\n\n  /**\n   * @dev Book a room for a certain address, internal function\n   * @param roomType The room type to be booked\n   * @param _nights The nights that we want to book\n   * @param room The room that wants to be booked\n   * @param guest The address of the guest that will book the room\n   */\n  function bookRoom(\n    string roomType, uint256[] _nights, uint256 room,\n    address guest, bytes32 bookingHash\n  ) internal {\n    for (uint i = 0; i < _nights.length; i ++) {\n      rooms[roomType].nights[_nights[i]][room].guest = guest;\n      rooms[roomType].nights[_nights[i]][room].bookingHash = bookingHash;\n    }\n    emit BookingDone(roomType, _nights, room, guest, bookingHash);\n  }\n\n  /**\n   * @dev Book a room for a certain address, onlyOwner function\n   * @param roomType The room type to be booked\n   * @param _nights The nights that we want to book\n   * @param room The room that wants to be booked\n   * @param guest The address of the guest that will book the room\n   */\n  function changeBooking(\n    string roomType, uint256[] _nights, uint256 room,\n    address guest, bytes32 bookingHash\n  ) public onlyOwner {\n    for (uint i = 0; i < _nights.length; i ++) {\n      rooms[roomType].nights[_nights[i]][room].guest = guest;\n      rooms[roomType].nights[_nights[i]][room].bookingHash = bookingHash;\n    }\n    emit BookingChanged(roomType, _nights, room, guest, bookingHash);\n  }\n\n  /**\n   * @dev Book a room paying with ETH\n   * @param pricePerNight The price per night in wei\n   * @param offerTimestamp The timestamp of when the offer ends\n   * @param offerSignature The signature provided by the offer signer\n   * @param roomType The room type that the guest wants to book\n   * @param _nights The nights that the guest wants to book\n   */\n  function bookWithEth(\n    uint256 pricePerNight,\n    uint256 offerTimestamp,\n    bytes offerSignature,\n    string roomType,\n    uint256[] _nights,\n    bytes32 bookingHash\n  ) public payable {\n    // Check that the offer is still valid\n    require(offerTimestamp < now);\n\n    // Check the eth sent\n    require(pricePerNight.mul(_nights.length) <= msg.value);\n\n    // Check if there is at least one room available\n    uint256[] memory available = roomsAvailable(roomType, _nights);\n    require(available.length > 0);\n\n    // Check the signer of the offer is the right address\n    bytes32 priceSigned = keccak256(abi.encodePacked(\n      roomType, pricePerNight, offerTimestamp, \"eth\", bookingHash\n    )).toEthSignedMessageHash();\n    require(offerSigner == priceSigned.recover(offerSignature));\n\n    // Assign the available room to the guest\n    bookRoom(roomType, _nights, available[0], msg.sender, bookingHash);\n\n    // Transfer the eth to the owner\n    owner.transfer(msg.value);\n  }\n\n  /**\n   * @dev Book a room paying with Lif\n   * @param pricePerNight The price per night in wei\n   * @param offerTimestamp The timestamp of when the offer ends\n   * @param offerSignature The signature provided by the offer signer\n   * @param roomType The room type that the guest wants to book\n   * @param _nights The nights that the guest wants to book\n   */\n  function bookWithLif(\n    uint256 pricePerNight,\n    uint256 offerTimestamp,\n    bytes offerSignature,\n    string roomType,\n    uint256[] _nights,\n    bytes32 bookingHash\n  ) public {\n    // Check that the offer is still valid\n    require(offerTimestamp < now);\n\n    // Check the amount of lifTokens allowed to be spent by this contract\n    uint256 lifTokenAllowance = lifToken.allowance(msg.sender, address(this));\n    require(pricePerNight.mul(_nights.length) <= lifTokenAllowance);\n\n    // Check if there is at least one room available\n    uint256[] memory available = roomsAvailable(roomType, _nights);\n    require(available.length > 0);\n\n    // Check the signer of the offer is the right address\n    bytes32 priceSigned = keccak256(abi.encodePacked(\n      roomType, pricePerNight, offerTimestamp, \"lif\", bookingHash\n    )).toEthSignedMessageHash();\n    require(offerSigner == priceSigned.recover(offerSignature));\n\n    // Assign the available room to the guest\n    bookRoom(roomType, _nights, available[0], msg.sender, bookingHash);\n\n    // Transfer the lifTokens to the owner\n    lifToken.transferFrom(msg.sender, owner, lifTokenAllowance);\n  }\n\n  /**\n   * @dev Get the total rooms for a room type\n   * @param roomType The room type that wants to be booked\n   */\n  function totalRooms(string roomType) view public returns (uint256) {\n    return rooms[roomType].totalRooms;\n  }\n\n  /**\n   * @dev Get the availability of a specific room\n   * @param roomType The room type that wants to be booked\n   * @param _nights The nights to check availability\n   * @param room The room that wants to be booked\n   * @return bool If the room is available or not\n   */\n  function roomAvailable(\n    string roomType, uint256[] _nights, uint256 room\n  ) view public returns (bool) {\n    require(room <= rooms[roomType].totalRooms);\n    for (uint i = 0; i < _nights.length; i ++) {\n      require(_nights[i] <= totalNights);\n      if (rooms[roomType].nights[_nights[i]][room].guest != address(0))\n        return false;\n      }\n    return true;\n  }\n\n  /**\n   * @dev Get the available rooms for certain nights\n   * @param roomType The room type that wants to be booked\n   * @param _nights The nights to check availability\n   * @return uint256 Array of the rooms available for that nights\n   */\n  function roomsAvailable(\n    string roomType, uint256[] _nights\n  ) view public returns (uint256[]) {\n    require(_nights[i] <= totalNights);\n    uint256[] memory available = new uint256[](rooms[roomType].totalRooms);\n    for (uint z = 1; z <= rooms[roomType].totalRooms; z ++) {\n      available[z-1] = z;\n      for (uint i = 0; i < _nights.length; i ++)\n        if (rooms[roomType].nights[_nights[i]][z].guest != address(0)) {\n          available[z-1] = 0;\n          break;\n        }\n    }\n    return available;\n  }\n\n\n}\n",
  "sourcePath": "/Users/pabloalice/wt/crypto-booking-app/smart-contracts/contracts/BookingPoC.sol",
  "compiler": {
    "name": "solc",
    "version": "0.4.24+commit.e67f0147.Emscripten.clang"
  },
  "schemaVersion": "2.0.1",
  "updatedAt": "2018-07-24T02:14:45.481Z"
}